:0600000014C05BC05DC0EE
:10000600FCCFFBCFFACFF9CFF8CFF7CFF6CFF5CFAE
:10001600F4CFF3CFF2CFF1CFF0CFEFCFEECFEDCFDE
:10002600ECCFEBCFF894EE27ECBBF1E0FBBFEBBFD8
:10003600E5BF8DE0A2E0BB27ED938A95E9F780E066
:1000460092E0A0E6ED930197E9F7EFE5EDBFE2E078
:10005600EEBFC0EED0E041C01A9310E01430B8F401
:10006600E1E05E2EE0E85E1618F478D0550CFACF83
:10007600E0E85E2EE1E0E51540F470D0A52DB0E095
:10008600E2E0F0E0A2D05E1AF5CF1F5FE7CFA2E371
:10009600B0E07AD0199108955524E4E05E1630F464
:1000A600EFEF60D0E0E05ED05394F7CFA4E6B0E087
:1000B6006BD008955BD0D0DF02C058D0EDDFE99158
:1000C600EFBFF991E991B991A991999189917991A6
:1000D6006991F990199009901895E0E0EABBEBBB9D
:1000E600E7BBE8BBEFEFE4BBE0E0E5BBE1BBE2BBAF
:1000F600E3BFE2BFECBFEFBDEEBDEDBDECBDE7BDBE
:10010600E6BDEBBDEABDE9BDE8BDE2BDE5BDE4BDCA
:10011600E3BDE9BFEBB7E06CEBBFEFE0E5BFE0E0C6
:10012600E4BFE0ECEABFE0E0EAB9E0E8E8B9E0E025
:10013600E0BFE6B9EDB9E6BF7894E1E05E2E55BAC8
:10014600A4E6B0E021D0E52DEE0FAE2FE52DEE1F93
:10015600E0E0EE1FEA2B5E2EF2CFFFCF55BAA2E308
:10016600B0E012C0E5BBA4EFB1E00EC00A921A924D
:10017600FA926A937A938A939A93AA93BA93EA9392
:10018600FA93EFB7EA930895109639F088EE93E064
:100196000197F1F7A8951197C9F70895F195E1959B
:1001A600F04008950024112490E1AA0FBB1F001C03
:1001B600111C0E1A1F0A18F40E0E1F1E01C0A16094
:1001C6009A9599F7FD01D001089504D0EBDF0EF45E
:1001D600E5DF0895E894F7FF02C0E0DF6894B7FF13
:1001E60006C0A095B095119600F8039400FA0895FC
:00000001FF
