:0600000053C0FECFFDCF4E
:10000600FCCFFBCFFACFF9CFF8CF77C0F6CFF5CF3D
:10001600F4CFF3CFF2CFF1CFF0CFEFCFEECFEDCFDE
:10002600ECCFEBCF1027E80364000A0001000010B4
:1000360000011000010077616B747520616E6461C8
:10004600206861626973006C656269682064722069
:1000560031362C3737730074696D65722031206F25
:10006600666600627574746F6E2030202075746B3E
:10007600206F6E0074696D65722031206F6E00749A
:10008600696D6572313A202536640077616B747547
:100096003A2025336620730080C00200F4009E00DB
:1000A6000000F894EE27ECBBF1E0FBBFEBBFE5BF29
:1000B6008DE0A2E0BB27ED938A95E9F780E092E018
:1000C600A0E6ED930197E9F7E0EAF0E085919591D6
:1000D600009761F0A591B59105901590BF01F001CB
:1000E60005900D920197E1F7FB01F0CFEFE5EDBF2B
:1000F600E2E0EEBFC0EED0E02AC00A921A92FA926F
:100106006A937A938A939A93AA93BA93EA93FA9301
:10011600EFB7EA934BD2C8D2CAD2ACE3B0E072D200
:10012600C3D2C7D2ADE4B0E06DD2A0EDB7E016D32E
:100136003DD2E991EFBFF991E991B991A9919991D0
:10014600899179916991F990199009901895E0E053
:10015600EABBEBBBE7BBE8BBE4BBE5BBE1BBE2BB91
:10016600E3BFE2BFECBFEFBDEEBDEDBDECBDE7BD4D
:10017600E6BDEBBDEABDE9BDE8BDE2BDE5BDE4BD5A
:10018600E3BDE4E0E9BFE0E0E5BFE4BFEAB9E0E8EB
:10019600E8B9E0E0E0BFE6B9EDB9E6BFA0E144D2D8
:1001A600789404D280990BC07FD281D2ADE5B0E0BD
:1001B60029D27AD27ED2A9E6B0E024D2F3CFF6D104
:1001C6008099FECFA8EEB3E0C9D280990DC06CD25B
:1001D6006ED2AAE7B0E016D267D26BD2A9E6B0E03B
:1001E60011D2E5E0EEBDF1CF8099FECFDFD163D22B
:1001F600E5E8F0E065D2ECB5FDB56627772763D272
:1002060056D2A0EEB0E0F0D1ECB5FDB56627772763
:10021600DED2AFE6B2E183E89EE307D3DF01CB018E
:10022600E0E0F0E06AE774E44ED3E093F000F09388
:10023600F1006093F2007093F3003DD2E1E9F0E043
:100246003FD2E091F000F091F1006091F2007091E0
:10025600F30039D22ED2A0EEB0E0C6D1E0E0F0E055
:10026600FDBDECBDE093F000E093F100E093F200F9
:10027600E093F300A8E8B3E171D293CFFFCF28D281
:100286008DD329D2129679D33097F1F024D226D283
:100296008F01309761F00230E0E01E0770F0F80140
:1002A60031978F01AA81BB811496ED93FC9313D2EB
:1002B600129617D23197AC81A0830DD25ED3FF235D
:1002C60012F009D20ED205C006D2EFEFFFEFED9382
:1002D600FC936BD325960895FBD126975BD310E04C
:1002E600AC85BD85E0E0F0E0ED93FC93EA89FB89FF
:1002F6003196EA8BFB8B3197E4912E2FE03009F48F
:10030600FEC0E12FE03031F4253211F411E001C0D6
:10031600EED1F4C0E130A1F4253211F4E8D1EDC0FC
:1003260012E040E000E02D3211F401E0E7C02B328C
:1003360011F44BE2E3C0203211F440E2DFC002C008
:10034600E23039F450E013E0203311F40068D6C0EF
:1003560003C0E33009F0D2C0203310F02A3308F08E
:1003660007C0AAE05A9F502DE22FE0535E0FC6C089
:10037600E22FE33639F4C2D1C4D1C0D1A481AA9305
:10038600C4D1BBC0E33731F4C6D1C7D1C9D175D109
:100396001E2F08C0E03751F4BED1BFD1C1D178D1EC
:1003A6001E2F086002600F7730E02EC0E43611F091
:1003B600E93611F4046002C0E53729F4EAE2F0E018
:1003C600B4D115E00BC0E83511F4086003C0E83776
:1003D60009F093C0E4E3F0E0A8D114E002FF11C0F5
:1003E6009AD19BD1A5D1AB85AA232AF4EA85FB85B0
:1003F600B3D29ED14DE2403011F01F5F01C00B7F9A
:1004060003C089D18AD194D100FD10C0151770F4AC
:1004160007FF08C002FF04C00B7F242F115001C044
:1004260020E301C020E263D15150F0CF312F01FF0C
:1004360015C0303091F003FF05C0EE81FF81259194
:1004460074D105C0AE81BF812D91AE83BF834FD1DC
:10045600503009F051503150ECCF46C020E3EE81C8
:10046600FF818FD2E887F987EE81FF8132965DD1D1
:10047600E885F985AA85BB85AE17BF0748F02F5FCB
:10048600A885B985EA85FB85EA1BFB0B51D1F0CF20
:100496002A3328F003FF02C0295F01C0295D04FD4D
:1004A60019C0213320F4A885B985119709F409C02C
:1004B600531710F000FF01C011C020E207FF0AC069
:1004C60020E3006102FF06C00B7F4A931ED1503025
:1004D60009F051500CD1503009F051503150A885D7
:1004E600B985129708F0BACF00FF07C0503029F03F
:1004F6005150E0E2EA9309D1F9CF10E0F7CEAC858E
:10050600BD853BD24ED264960895FF92F82E26976B
:1005160043D211D1309719F4EFEFFFEF1CC0DE0183
:10052600169616D28D0107D100D1E0E0E887E9875B
:10053600DE011A960DD221D2C3D01A930A93E2E4B1
:10054600F1E0BED0DE011A96C7DE9F01AE81BF8103
:10055600E0E0EC93F90127D22A96FF900895AA933A
:10056600E8B3EF70AE2FE881E07FEA2BE8BBE8D076
:10057600C29AE6D0C298E4D07EC0AA93A881EFDFE3
:10058600E881E295E883A881EADF83E48A95F1F7BA
:1005960072C0AA93E881F0E0EC50FF4FE081A98198
:1005A600AE0FEBDF5980488022960895A2E0CCD0AA
:1005B600ACE0E3DFA1E0C8D0E0E04E2E5E2E089569
:1005C600AA93A881AA3011F0571440F06DD0439435
:1005D600A42DDFDFA881AA3009F44DC05394C09A38
:1005E600A881CBDFC09847C073D01A93A981BA817E
:1005F600ED91A983BA831E2FE03019F0A12FE0DF19
:10060600F5CF0FC065D01A93E981FA813196E98357
:10061600FA833197E4911E2FE03019F0A12FD0DF35
:10062600F3CF188123960895AA93E7B3E06FE7BB4B
:10063600BA9AB89AB99AC298C098C1987880E8814F
:10064600E058E093F600E881E054E093F700A4E177
:10065600B0E084D07DD07CD07BD0A0E280DF85E87E
:100666008A95F1F7A8E289DFA4E087DFA5E885DFB0
:10067600A6E083DF9BDF219608952AD0A991B99140
:10068600EE27FF276D91662311F03196FBCF089573
:100696001FD0AA27BB27E991F9910590002011F0F8
:1006A6001196FBCFFD010895E0E0EA930895A0E0DE
:1006B60070CFA1E06ECFE0EEF0E0FA93EA930895F2
:1006C600FA93EA93089561D184E01FDF2896ECCF70
:1006D600BA93AA930895AA81BB81089514964DD121
:1006E6000895ED91FD913196FE93EE9308952A9328
:1006F600AD85BE85EF85F88909950895E889F9895C
:1007060008953497E88BF98B0895AD85BE85EF85FE
:10071600F88909950895F2DFF4CFA889B989DECF63
:10072600EE83FF83AE81BF810895EE83FF83089534
:10073600EA87FB870895DE011C960AD11ED108952B
:1007460087E08A95F1F7089518DFA3E0B0E006C0C8
:10075600A0E305DF85E88A95F1F70895109639F04C
:1007660088EE93E00197F1F7A8951197C9F70895D8
:10077600552342F4503811F4E0FF04C03196691F46
:10078600791F6BF050E8572711F45F933CC05F3F29
:1007960031F0660F000C57956795752F08955F9396
:1007A60000200AF03CC035C050E8192E1522880FEB
:1007B600991F9527550F879550E8072E0522660F36
:1007C600771F7527550F67950895689401C0E894BB
:1007D600309760407040B1F0002426F0772312F481
:1007E6000094BED0172E7EE1112032F07A95EE0FDE
:1007F600FF1F661F111CF9CFEF2FF62F612D5F9398
:10080600C1DF5F910895EE27FF27662777275F915F
:100816000895EFEFFFEF6FE77FEF5F910895EFEF3A
:10082600FFEF6FE77FE75F9108955F93BDDF703855
:1008360051F3903841F301240894791F23F41CF3F3
:1008460000203AF3ECCF0F921F932F933F934F93D1
:10085600112722279927689FA0018F9F302D410DD0
:10086600591F6B9F300D411D591F8E9F27D0BF9F6B
:1008760025D06A9F23D0BE9F1DD0AF9F1BD0AE9FB1
:10088600110D291F391F491F591FE32FF42F652FFB
:10089600522F4F913F912F911F910F9066232AF06F
:1008A600550FEE1FFF1F661F02C073954BF260DFE8
:1008B6005F910895100D211D391F02C0200D311DB5
:1008C600491F591F08955F936FDF703821F4112077
:1008D6000AF49FCFA4CF903809F495CF0124089449
:1008E600970B1BF4D4F30020F3CF792F1F932F938C
:1008F6003F934F9311241127222733274427552747
:1009060090E2AE17BF078607410730F0AE1BBF0B5C
:10091600860B410B089401C08894551F221F331F74
:10092600111CAA1FBB1F881F441F9A9551F7F90176
:10093600612D4F913F912F911F91662332F0550FF4
:10094600EE1FFF1F661F7A9543F212DF5F9108952F
:100956000024AF0DB01D0895F195E195F04008957E
:10096600F09560957095E195FF4F6F4F7F4F089515
:100976006F2F660F660B762F0895ED91FC911197F8
:1009860008950590F491E02D08957A936A93FA9369
:10099600EA9308955A934A933A932A931A930A9399
:1009A60008955D814C813B812A81198108810895D2
:00000001FF
