:0800000054C0FECFFDCFFCCF80
:10000800FBCFFACFF9CFF8CFF7CFF6CFF5CFF4CFB4
:10001800F3CFF2CFF1CFF0CFEFCFEECFEDCFECCFE4
:10002800EBCF7072616B742C204D696B726F205529
:1000380041440041544D454C2041565220383533F7
:10004800350050726F6469205420456C656B74727A
:100058006F0073656D6573746572205600636F6E0B
:10006800746F6820706572696E7461680025750028
:1000780025690025640025780025322E32660000A7
:100088002D4E414E000080C001002D4E414E0049CA
:100098004E4600000200FB008E000100FF009000A9
:1000A8000000F894EE27ECBBF1E0FBBFEBBFE5BF27
:1000B8008DE0A2E0BB27ED938A95E9F780E092E016
:1000C800A0E6ED930197E9F7ECE9F0E085919591C9
:1000D800009761F0A591B59105901590BF01F001C9
:1000E80005900D920197E1F7FB01F0CFEFE5EDBF29
:1000F800E2E0EEBFC7EED0E000C0E0E0EABBEBBB59
:10010800E7BBE8BBE4BBE5BBE1BBE2BBE3BFE2BFE7
:10011800ECBFEFBDEEBDEDBDECBDE7BDE6BDEBBD93
:10012800EABDE9BDE8BDE2BDE5BDE4BDE3BDE9BFAB
:10013800E5BFE4BFEAB9E0E8E8B9E0E0E0BFE6B966
:10014800EDB9E6BFA0E19AD3ADD4AFD4AAE2B0E04E
:1001580083D3A8D4ACD4ABE3B0E0ABD4AAE4B0E08A
:100168007BD3A0D4A4D4AAE5B0E0A3D49BD49DD4D7
:10017800A1E450D3E2E0A2D4A2E44CD3E4E09ED4BC
:10018800A3E448D3E6E09AD4A0EE44D3E8E096D4BA
:10019800A2EE40D3EAE092D4A4EE3CD3ECE08ED4B5
:1001A800A4EF38D3EEE08AD4A4EF34D37BD47FD441
:1001B800A5E6B0E051D3A8EEB3E0BAD5EDE05E2EE7
:1001C8007FD4E093F700F093F8006093F900709300
:1001D800FA0016D37AD4E5E7F0E07CD463D465D48A
:1001E80074D4E8E7F0E076D4E4E068D46ED4EBE7C2
:1001F800F0E070D4E8E062D468D4EEE7F0E06AD4C6
:10020800ECE05CD462D4E1E8F0E064D44BD44FD4A1
:10021800A7EEB0E013D359D4E1E8F0E066D4E0915A
:10022800F700F091F8006091F9007091FA00B7D7E3
:1002380084E095D22896E6E0EA9339D4A7EEB0E0B8
:10024800FDD2A8EEB3E074D57FCFFFCF51D4C6D787
:1002580052D412968BD73097F1F04DD44FD48F01EA
:10026800309761F00230E0E01E0770F0F801319736
:100278008F01AA81BB811496ED93FC933CD412960E
:1002880040D43197AC81A08336D470D7FF2312F0C5
:1002980032D437D405C02FD4EFEFFFEFED93FC93A2
:1002A800A4D72596089533D4E0E8EA83EFE3EB83F7
:1002B80093D7EE85FF85EF3FAFEFFA0739F4E8856E
:1002C800F98513D4A8E8B0E002D378C0EF3FAFE7D0
:1002D800FA0731F422D409D4A9E8B0E0F8D26EC004
:1002E800AB85A73010F0E6E0EB871B8519D411F039
:1002F8001BD4FCCF27D46AD719F430E015D41BC01F
:100308003B8525D409F008F407C00ED420D418F092
:1003180028D42CD4FBCF08C01AD428F422D431D442
:1003280036D43150F9CF00D40DD436D430D40FD4CC
:1003380010F017D41BD410E0EB85E117F8F032D495
:1003480036D42AD4DF01CB0115D3EC83FD836E8329
:100358007F8307D43BD629D50E2F2FD435D4B0D3DD
:1003680021D4E6D5FED325D78CD511D4E12F1F5F34
:10037800E03011F722D4EEE2EC93DECF2AD43197A5
:10038800AA85A08330302CF43195A885B985EDE293
:1003980003C0A885B985EBE2EC931BD41AD41ED40C
:1003A8009FD6E05DDB01EC9314D418D4C3D6E05D8E
:1003B800DB01EC93A885B985E0E0EC9314D760964F
:1003C800089596D3EF97619705D710E0FE01E85A94
:1003D800FF4F0190F081E02DE887F987FE01EA5A86
:1003E800FF4F0190F081E02DEE83FF83FCD3E0E026
:1003F800F0E0ED93FC93DE01A45ABF4F82D331970E
:10040800E4912E2FE03009F4A4C1E12FE03031F45B
:10041800253211F411E001C0E9D39AC1E130B9F4F1
:10042800253211F4E3D393C112E0E0E0ED8B00E054
:100438002D3211F401E08CC12B3219F4EBE2ED8B73
:1004480087C1203219F4E0E2ED8B82C102C0E230AC
:1004580039F450E013E0203311F4006879C102C088
:10046800E33091F4203310F02A3308F007C0AAE0F3
:100478005A9F502DE22FE0535E0F6AC140E02E32A2
:1004880011F414E065C10FC0E43099F4203310F082
:100498002A3308F008C00062AAE04A9F402DE22FE4
:1004A800E0534E0F55C12C3619F4026015E050C1C7
:1004B80003C0E53009F04CC1E22FE33639F49DD38F
:1004C800A3D39BD3A481AA93A6D341C1E53411F049
:1004D800E53609F402C0E636A9F5A3D3A7D34AD670
:1004E800ACD3B0D3AD85AA2332F0AD89AB3241F09D
:1004F800A03261F012C0A8D325D49FD3EDE2ED8BD2
:1005080007FF04C0ED89EA9386D307C0EE85FF850F
:1005180031969FD33197AD89A08305FF46E02636F3
:1005280039F492D33CD64A93AB89BC8933D207C0FD
:100538008BD335D64A932A93AC89BD89B4DE71D35F
:100548008BD318C0E33729F47DD38BD382D384D3DC
:100558000AC0E037A1F476D384D37BD3AE85BF85B8
:10056800CDD11E2F08600F77403011F0411708F0E9
:1005780001C0142F40E0E0E0EC8B30E05EC0E436D0
:1005880011F0E93611F4046002C0E53791F4EAE0AD
:10059800EC8B01FF07C0E0E0FAEC6AE97BE363D388
:1005A8001AE01FC0E0E1F7E260E070E05CD315E01C
:1005B80018C0E83511F4086003C0E83709F0C7C06F
:1005C800E0E1EC8B01FF07C0E0E0F0E060E070E103
:1005D8004AD318E006C0E0E0F0E160E070E043D301
:1005E80014E0403011F00F7701C041E001FF05C071
:1005F80029D31CD31496BED50AC002FF04C022D347
:1006080030D35BD504C01ED32CD366277727EA875F
:10061800FB876C877D8702FF0FC0AD85AA232AF46C
:1006280013D33DD50AD3EDE2ED8BED89E03019F017
:100638001F5F4F5F01C00B7F342F00FD13C01517DC
:1006480010F4351708F00EC007FF08C002FF04C0F9
:100658000B7F2D89115001C020E301C020E2C6D2D2
:100668005150EDCF141780F4006102FF05C000D38C
:1006780009F0515011504150E0E3EA93CCD2503088
:1006880009F051504150EECF312FEC89E030A9F4F8
:10069800303091F003FF05C0EE85FF852591D9D252
:1006A80005C0AE85BF852D91AE87BF879FD25030DC
:1006B80009F051503150ECCF41C0ECD216D52E2F55
:1006C8002A3030F003FF02C0295C01C0295A01C05A
:1006D800205D04FD1DC0213348F4E5D2A130E0E0DF
:1006E800BE07E0E08E07E0E09E0709F40BC0431761
:1006F80040F4531710F000FF01C00EC020E207FFBE
:1007080007C020E3006102FF03C0B2D209F05150D4
:100718006DD2503009F051503150BCD217D58DD21E
:10072800EC89C1D2FF2766277727DFD49CD2E889D6
:10073800F9896A897B894AD509F0BFCF00FF07C0CC
:10074800503029F05150E0E2EA9365D2F9CF10E039
:1007580052CE49D20BD545D5EF966F960895FF92A4
:10076800F82E269739D5A4D2309719F4EFEFFFEF7A
:100778001CC0DE0116968FD48D019AD2EE83FF83BA
:10078800E0E0E887E987DE011A9685D4EFD4ADD199
:100798001A930A93EAE2F1E0A8D1DE011A9611DE73
:1007A8009F0121D2E0E0EC93F9011DD52A96FF9034
:1007B8000895AA93E8B3EF70AE2FE881E07FEA2BA3
:1007C800E8BB7BD2C29A79D2C29877D27EC0AA936C
:1007D800A881EFDFE881E295E883A881EADF83E476
:1007E8008A95F1F772C0AA93E881F0E0E550FF4FCF
:1007F800E081A981AE0FEBDF4980788022960895C9
:10080800A2E05FD2ACE0E3DFA1E05BD2E0E07E2EC5
:100818004E2E0895AA93A881AA3011F0461440F0EC
:1008280041D17394A72DDFDFA881AA3009F44DC008
:100838004394C09AA881CBDFC09847C059D11A9376
:10084800A981BA81ED91A983BA831E2FE03019F0EE
:10085800A12FE0DFF5CF0FC04BD11A93E981FA81C0
:100868003196E983FA833197E4911E2FE03019F02D
:10087800A12FD0DFF3CF188123960895AA93E7B369
:10088800E06FE7BBBA9AB89AB99AC298C098C1986B
:100898006880E881E058E093FD00E881E054E09347
:1008A800FE00A4E1B0E044D210D20FD20ED2A0E2F2
:1008B80080DF85E88A95F1F7A8E289DFA4E087DF81
:1008C800A5E885DFA6E083DF9BDF2196089510D198
:1008D800E991F991A991B991CD0105900D92002066
:1008E800E1F7FC01089504D1A991B991EE27FF27FA
:1008F8006D91662311F03196FBCF0895F9D0AA27A0
:10090800BB27E991F9910590002011F01196FBCFD2
:10091800FD01089549D47B816A81F981E88177FBDB
:10092800770F67FD7160972F9E5781F078F09831A7
:1009380090F4AA27BB27882708948795B795A79589
:100948009A95D1F7EA23FB23682305C0E894772713
:10095800EE27FF2766276F77769508F4606877F9A2
:10096800A991B99189919991EA17FB0768077907C5
:1009780097FB089519D409D4CDDF0CD411F4ABD169
:1009880007C0EEF7A8D1A0E0B0E080E89FE379D2F5
:1009980024960895BCD0E0E0EA83EFE3EB831ED40D
:1009A800EB85FC85EF3FAFEFFA0729F496D1A2E972
:1009B800B0E08DDF74C0EF3FAFE7FA0729F48DD1BF
:1009C800A3E9B0E084DF6BC0AC85AA2332F488D1F8
:1009D800B9D18BD18FD1EDE2EC93A885A73010F077
:1009E800E6E0E88718859CD021F08AD1E0D08DD147
:1009F800FACF90D14DD279D110E0E0E0F0E060E894
:100A08007FE383D187D127D360F07AD1BAD07DD163
:100A18001F5F173228F061D1A7E9B0E058DF3FC067
:100A2800F1CF103021F466D1E0E3EC9319C078D00F
:100A3800B9F066D1BCD0B0D0DF01CB019BDF65D166
:100A480069D1C4D2B2D10E2F55D1BED0F0E058D161
:100A580034D3E4D16DD267D1ACD313D246D1E7CF2A
:100A6800E885E030C1F046D1EEE2EC93E885E1504C
:100A7800E887EF5F81F057D184D037D131D195D154
:100A88000E2F38D1A1D0F0E04ED117D3C7D191D3D2
:100A9800F8D12BD1EBCFAE81BF81E0E0EC93A5D3A9
:100AA8002D960895E0E0EA930895A0E09CCEA1E099
:100AB8009ACED2DEA8EEB3E03BD1A2CEEA93F5CF30
:100AC800FF2766277727AAD10895E7EEF0E0FA9383
:100AD800EA930895FA93EA93E52DFF276627772787
:100AE8005ED384E03CDE28960895FA93EA9308954D
:100AF800BA93AA930895AA81BB810895149636D310
:100B08000895ED91FD913196FE93EE930895F0DFEF
:100B18002497E0E0E883E9830895E885F985089556
:100B2800E12F1150E0300895AC81BD818E819F8105
:100B3800E0E0F0E060E271E4FBD1EC83FD836E83DA
:100B48007F830895EC85FD856E857F850895EC810A
:100B5800FD816E817F81AC85BD858E859F857BD229
:100B68000895AC85BD858E859F850895EDECFCECD8
:100B78006CEC7DE3DDD1EC87FD876E877F873F5F77
:100B88000895E0E0F0E060E271E4D2D10895EC87E6
:100B9800FD876E877F870895A0E0B0E080E09FE33F
:100BA80077D10895AC81BD818E819F810895EDEC48
:100BB800FCEC6CEC7DE3BCD10895A885B985119651
:100BC800A887B98711970895E02FE05DEC93E02F8F
:100BD8000895A3DF3196E887F98708953197BF0113
:100BE800A32FEAE00895AE81BF8108952A93AF81CB
:100BF800B885E985FA8509950895FE01E65AFF4FFB
:100C08000190F081E02D08953497DE01A65ABF4F78
:100C1800ED93FC930895AF81B885E985FA85099528
:100C28000895FE017696EE87FF870895DE01A65A9D
:100C3800BF4F0D90BC91A02D0895EA87FB876C8764
:100C48007D870895DADFE0CFEA85FB856C857D85B1
:100C58000895EE87FF870895AE85BF8544DE1E2F71
:100C68000895E4DF4BCFE88BF98B6A8B7B8B089573
:100C78000B7FED89EA93DE01A95ABF4F0D90BC9115
:100C8800A02DFE01E75AFF4F0190F081E02D099554
:100C980050300895E889F9896A897B89AA85BB85D6
:100CA8008C859D850895A889B9898A899B89089525
:100CB800DE011C96F0D15AD2089587E08A95F1F7A3
:100CC800089585DDA3E0B0E033C0A0E372DD85E8D8
:100CD8008A95F1F7089554D20895EE81FF8105CFE2
:100CE800E985FA856B857C850895E987FA876B879E
:100CF8007C87089578DF1196AE83BF831197089596
:100D0800AA81BB818C819D810895EA83FB836C83D2
:100D18007D830895EA81FB816C817D81A985BA85EF
:100D28008B859C850895A985BA858B859C850895B2
:100D3800109639F088EE93E00197F1F7A89511978E
:100D4800C9F7089530976040704009F070580895C9
:100D5800552342F4503811F4E0FF04C03196691F5E
:100D6800791F6BF050E8572711F45F93CFC05F3FAE
:100D780031F0660F000C57956795752F08955F93AE
:100D880000200AF0CFC0C8C050E8192E1522880FDD
:100D9800991F9527550F879550E8072E0522660F4E
:100DA800771F7527550F67950895689401C0E894D3
:100DB8005F93F2DF703818F07F3F08F4A7C056E160
:100DC800571BAAF4519558300EF4593030F0EFEF14
:100DD800FFEF6FEF7FE777F91AC077275523B9F050
:100DE800EE0FFF1F661F771F5A95D1F710C07727A0
:100DF800583028F0EF2FF62F672F5850F9CF55238A
:100E080031F076956795F795E7955A95D1F70020D3
:100E18000AF445D15F910895689401C0E894309729
:100E280060407040B1F0002426F0772312F400945B
:100E380036D1172E7EE1112032F07A95EE0FFF1F82
:100E4800661F111CF9CFEF2FF62F612D5F938ADFF4
:100E58005F9108954F93AF01FD01DA01AB01BC0129
:100E6800CA01402D012C142E4F910895EA0FFB1F43
:100E7800681F0895E095F0956095EF5FFF4F6F4FFD
:100E880008955F9381DF903871F150E8152604C00A
:100E98005F937ADF903839F1703821F1572F591B59
:100EA8002BF112F4D7DFFACF583118F0AA27BB2755
:100EB8008827583028F0AB2FB82F88275850F9CFFB
:100EC800552329F08695B795A7955A95D9F7502DAA
:100ED800512572F0CBDF38F46795F795E795739550
:100EE80013F420C0B7DF3EDF5F910895D8F7FBCF3A
:100EF800EA1BFB0B680B51F010F40094BBDF662370
:100F080092F3EE0FFF1F661F7A95CBF7EE27FF27A8
:100F1800662777275F910895EFEFFFEF6FE77FEF81
:100F28005F910895EFEFFFEF6FE77FE75F91089517
:100F38005F932ADF703851F3903841F30124089405
:100F4800791F23F41CF300203AF3ECCF0F921F9380
:100F58002F933F934F93112722279927689FA0012A
:100F68008F9F302D410D591F6B9F300D411D591F0B
:100F78008E9F27D0BF9F25D06A9F23D0BE9F1DD0AC
:100F8800AF9F1BD0AE9F110D291F391F491F591F35
:100F9800E32FF42F652F522F4F913F912F911F91DF
:100FA8000F9066232AF0550FEE1FFF1F661F02C021
:100FB80073954BF2CDDE5F910895100D211D391FF9
:100FC80002C0200D311D491F591F08955F93DCDEB3
:100FD800703821F411200AF49FCFA4CF903809F477
:100FE80095CF01240894970B1BF4D4F30020F3CF7A
:100FF800792F1F932F933F934F9311241127222763
:1010080033274427552790E2AE17BF0786074107C5
:1010180030F0AE1BBF0B860B410B089401C08894BF
:10102800551F221F331F111CAA1FBB1F881F441FD7
:101038009A9551F7F901612D4F913F912F911F9189
:10104800662332F0550FEE1FFF1F661F7A9543F295
:101058007FDE5F91089599239AF0772342F09717DE
:1010680048F029F4AE17BF07860720F031F09894AE
:1010780088940895989408940895189488940895E5
:101088007723C2F7971798F3A9F7EA17FB076807BA
:1010980088F399F3ECCF0024AF0DB01D0895F095B7
:1010A80060957095E195FF4F6F4F7F4F0895FE2F24
:1010B800FF0FFF0B6F2F7F2F08956F2F660F660BA3
:1010C800762F0895002498E0AA0F001C0E1A10F439
:1010D8000E0E01C0A1609A95B9F7EA2FA02D0895C8
:1010E80039D0F0DF0EF4E19508953F934F935F9365
:1010F800002411244427552730E2AA0FBB1F881F5C
:10110800991F001C111C441F551F0E1A1F0A460B5D
:10111800570B28F40E0E1F1E461F571F01C0A16053
:101128003A9559F7FD01BC01D001CA015F914F9171
:101138003F910895E894A7FF02C0A1956894E7FD40
:10114800E195C0DFEA2F0EF4E1950895CEDFFD01A9
:10115800BC010895E894E7FF02C0E1956894A7FFF1
:1011680004C0A19500F8039400FA0895ED91FC914C
:1011780011970895ED91FD916D917C9113970895C4
:10118800E881F9816A817B810895A881B9818A8182
:101198009B810895E883F9836A837B8308957A9312
:1011A8006A93FA93EA9308959A938A93BA93AA93BF
:1011B8000895182E862F612D192E972F712D1B2E0D
:1011C800BF2FF12D1A2EAE2FE12D089530976040D4
:1011D800704008955A934A933A932A931A930A931C
:1011E80008955D814C813B812A8119810881089588
:00000001FF
