:0400000014C0FECF5B
:10000400FDCFFCCFFBCFFACFF9CFF8CFF7CFF6CFA8
:10001400F5CFF4CFF3CFF2CFF1CFF0CFEFCFEECFD8
:10002400EDCFECCFEBCFF894EE27ECBBF1E0FBBFC8
:10003400EBBFE5BF8DE0A2E0BB27ED938A95E9F71E
:1000440080E092E0A0E6ED930197E9F7EFE5EDBFDC
:10005400E2E0EEBFC0EED0E000C0E0E0EABBEBBB04
:10006400E7BBE8BBEFEFE4BBE0E0E5BBE0EFE1BBFF
:10007400EFE0E2BBE0E0E3BFE2BFECBFEFBDEEBD0B
:10008400EDBDECBDE7BDE6BDEBBDEABDE9BDE8BD38
:10009400E2BDE5BDE4BDE3BDE9BFE5BFE4BFEAB948
:1000A400E0E8E8B9E0E0E0BFE6B9EDB9E6BF06D0C4
:1000B40045BAA5E0B0E062D0FACFFFCF949849D01A
:1000C40011F4E1E00BC04ED011F4E4E007C04ED0CF
:1000D40011F4E7E003C04ED011F4EEE04E2E949AF2
:1000E400959837D019F4E2E04E2E0DC03BD019F4A8
:1000F400E5E04E2E08C03AD019F4E8E04E2E03C0D5
:1001040039D009F44424959A969823D011F4E3E065
:100114000BC028D011F4E6E007C028D011F4E9E0C0
:1001240003C028D011F4EFE04E2E969A979811D080
:1001340011F4EAE00BC016D011F4EBE007C016D0BE
:1001440011F4ECE003C016D011F4EDE04E2E979AB2
:100154000895E0B3E095EF705E2EF0E0E130A0E0AA
:10016400FA070895E230A0E0FA070895E430A0E029
:10017400FA070895E830A0E0FA070895109639F0D8
:1001840088EE93E00197F1F7A8951197C9F70895C0
:00000001FF
