:0A00000040C0FECFFDCFFCCFFBCFC8
:10000A00FACFF9CFF8CFF7CF63C0F5CFF4CFF3CF5C
:10001A00F2CFF1CFF0CFEFCFEECFEDCFECCFEBCFEA
:10002A001027E80364000A00010000100001100014
:10003A00010074656C6168206F766572666C6F7713
:10004A00006B656D62616C69206B6520323430002B
:10005A00636F756E746572303A2000253364006DE3
:10006A00756C61692064617269203234300080C025
:10007A000200F00078000000F894EE27ECBBF1E0F3
:10008A00FBBFEBBFE5BF8DE0A2E0BB27ED938A95EE
:10009A00E9F780E092E0A0E6ED930197E9F7EAE755
:1000AA00F0E085919591009761F0A591B591059041
:1000BA001590BF01F00105900D920197E1F7FB0140
:1000CA00F0CFEFE5EDBFE2E0EEBFC0EED0E02EC02C
:1000DA000A921A92FA926A937A938A939A93AA93B1
:1000EA00BA93EA93FA93EFB7EA930BD288D2A0E0D5
:1000FA00FBD1ACE3B0E031D282D2A1E0F5D1ABE4DE
:10010A00B0E02BD2E7EFE2BFA0EDB7E0C4D2F9D15D
:10011A00E991EFBFF991E991B991A99199918991E1
:10012A0079916991F990199009901895E0E0EABBE4
:10013A00EBBBE7BBE8BBEFEFE4BBE0E0E5BBE1BB51
:10014A00E2BBE7E0E3BFEAEFE2BFE0E0ECBFEFBD0E
:10015A00EEBDEDBDECBDE7BDE6BDEBBDEABDE9BD5B
:10016A00E8BDE2BDE5BDE4BDE3BDE1E0E9BFE0E035
:10017A00E5BFE4BFEAB9E0E8E8B9E0E0E0BFE6B924
:10018A00EDB9E6BFA0E1FBD17894E2B7E5BB37D27F
:10019A00A0E0AAD1AAE5B0E0E0D1EAE0EA93A0E0C3
:1001AA00A3D1E0EEF0E02ED2E5E6F0E02BD2E2B702
:1001BA00FF276627772789D284E052D12896A0EEB6
:1001CA00B0E0BDD11CD2A1E08FD1A9E6B0E0C5D183
:1001DA00DCCFFFCF1AD282D21BD212966ED23097C0
:1001EA00F1F016D218D28F01309761F00230E0E0B8
:1001FA001E0770F0F80131978F01AA81BB8114960E
:10020A00ED93FC9305D2129609D23197AC81A08363
:10021A00FFD153D2FF2312F0FBD100D205C0F8D18F
:10022A00EFEFFFEFED93FC9360D225960895EDD1A1
:10023A00269750D210E0AC85BD85E0E0F0E0ED9362
:10024A00FC93EA89FB893196EA8BFB8B3197E4911F
:10025A002E2FE03009F4FEC0E12FE03031F42532D0
:10026A0011F411E001C0E0D1F4C0E130A1F425326B
:10027A0011F4DAD1EDC012E040E000E02D3211F4C1
:10028A0001E0E7C02B3211F44BE2E3C0203211F453
:10029A0040E2DFC002C0E23039F450E013E020331C
:1002AA0011F40068D6C003C0E33009F0D2C020338D
:1002BA0010F02A3308F007C0AAE05A9F502DE22F07
:1002CA00E0535E0FC6C0E22FE33639F4B4D1B6D19B
:1002DA00B2D1A481AA93B6D1BBC0E33731F4B8D165
:1002EA00B9D1BBD175D11E2F08C0E03751F4B0D1B6
:1002FA00B1D1B3D178D11E2F086002600F7730E0F8
:10030A002EC0E43611F0E93611F4046002C0E53774
:10031A0029F4EAE2F0E0A6D115E00BC0E83511F4C1
:10032A00086003C0E83709F093C0E4E3F0E09AD12B
:10033A0014E002FF11C08CD18DD197D1AB85AA23CD
:10034A002AF4EA85FB85B5D190D14DE2403011F00F
:10035A001F5F01C00B7F03C07BD17CD186D100FD1A
:10036A0010C0151770F407FF08C002FF04C00B7F06
:10037A00242F115001C020E301C020E255D1515071
:10038A00F0CF312F01FF15C0303091F003FF05C0C7
:10039A00EE81FF81259166D105C0AE81BF812D9185
:1003AA00AE83BF8341D1503009F051503150ECCF68
:1003BA0046C020E3EE81FF8184D1E887F987EE8188
:1003CA00FF8132964FD1E885F985AA85BB85AE179C
:1003DA00BF0748F02F5FA885B985EA85FB85EA1B28
:1003EA00FB0B43D1F0CF2A3328F003FF02C0295F69
:1003FA0001C0295D04FD19C0213320F4A885B985FF
:10040A00119709F409C0531710F000FF01C011C079
:10041A0020E207FF0AC020E3006102FF06C00B7F4B
:10042A004A9310D1503009F05150FED0503009F0A3
:10043A0051503150A885B985129708F0BACF00FFFC
:10044A0007C0503029F05150E0E2EA93FBD0F9CFCF
:10045A0010E0F7CEAC85BD8530D143D164960895BE
:10046A00FF92F82E269738D103D1309719F4EFEF7F
:10047A00FFEF1CC0DE01169618D18D01F9D0F2D01B
:10048A00E0E0E887E987DE011A960FD116D1BAD0E3
:10049A001A930A93EFEEF0E0B5D0DE011A96C7DEA2
:1004AA009F01AE81BF81E0E0EC93F9011CD12A964D
:1004BA00FF900895AA93EBB3EF70AE2FE881E07F27
:1004CA00EA2BEBBBDAD0DA9AD8D0DA98D6D07EC04B
:1004DA00AA93A881EFDFE881E295E883A881EADFA1
:1004EA0083E48A95F1F772C0AA93E881F0E0E051BB
:1004FA00FF4FE081A981AE0FEBDF59804880229639
:10050A000895A2E0BED0ACE0E3DFA1E0BAD0E0E01B
:10051A004E2E5E2E0895AA93A881AA3011F0571480
:10052A0040F06DD04394A42DDFDFA881AA3009F4EE
:10053A004DC05394D89AA881CBDFD89847C065D0CC
:10054A001A93A981BA81ED91A983BA831E2FE0304B
:10055A0019F0A12FE0DFF5CF0FC057D01A93E98128
:10056A00FA813196E983FA833197E4911E2FE030BC
:10057A0019F0A12FD0DFF3CF188123960895AA93FB
:10058A00EAB3E06FEABBD29AD09AD19ADA98D898AD
:10059A00D9987880E881E058E093F200E881E05445
:1005AA00E093F300A4E1B0E076D06FD06ED06DD0C6
:1005BA00A0E280DF85E88A95F1F7A8E289DFA4E066
:1005CA0087DFA5E885DFA6E083DF9BDF2196089514
:1005DA001CD0A991B991EE27FF276D91662311F0DE
:1005EA003196FBCF089511D0AA27BB27E991F9913B
:1005FA000590002011F01196FBCFFD010895E0E06F
:10060A00EA930895FA93EA930895BA93AA930895F8
:10061A00AA81BB810895149650D00895ED91FD9159
:10062A003196FE93EE9308952A93AD85BE85EF85A4
:10063A00F88909950895E889F98908953497E88B26
:10064A00F98B0895AD85BE85EF85F88909950895DA
:10065A00F2DFF4CFA889B989DECFEE83FF83AE81BA
:10066A00BF810895EE83FF830895EA87FB87089583
:10067A00DE011C961AD021D0089587E08A95F1F7F9
:10068A00089526DFA3E0B0E006C0A0E313DF85E803
:10069A008A95F1F70895109639F088EE93E001975C
:1006AA00F1F7A8951197C9F708950024AF0DB01D69
:1006BA000895F195E195F0400895ED91FC91119717
:1006CA0008950590F491E02D08957A936A93FA9328
:1006DA00EA9308955A934A933A932A931A930A9358
:1006EA0008955D814C813B812A8119810881089591
:00000001FF
