:0C0000002AC0FECFFDCFFCCFFBCFFACF13
:10000C00F9CFF8CFF7CFF6CFF5CFF4CFF3CFF2CFC0
:10001C00F1CFF0CFEFCFEECFEDCFECCFEBCF102772
:10002C00E80364000A000100001000011000010048
:10003C00636F756E746572303A200025336400006E
:10004C0080C00200F0004C000000F894EE27ECBBDE
:10005C00F1E0FBBFEBBFE5BF8DE0A2E0BB27ED936A
:10006C008A95E9F780E092E0A0E6ED930197E9F735
:10007C00EEE4F0E085919591009761F0A591B59132
:10008C0005901590BF01F00105900D920197E1F7D5
:10009C00FB01F0CFEFE5EDBFE2E0EEBFC0EED0E04C
:1000AC0000C0E0E0EABBEBBBE7BBE8BBEFEFE4BBB7
:1000BC00E0E0E5BBE1BBE2BBE7E0E3BFE0E0E2BFD1
:1000CC00ECBFEFBDEEBDEDBDECBDE7BDE6BDEBBDE0
:1000DC00EABDE9BDE8BDE2BDE5BDE4BDE3BDE9BFF8
:1000EC00E5BFE4BFEAB9E0E8E8B9E0E0E0BFE6B9B3
:1000FC00EDB9E6BFA0E1F6D1E2B7E5BBE0E0EA93EB
:10010C00A0E0A4D1ACE3B0E0DBD1EAE0EA93A0E05C
:10011C009DD1E0EEF0E026D2E7E4F0E023D2E2B7A6
:10012C00FF276627772781D284E04CD12896A0EE52
:10013C00B0E0B8D1E1CFFFCF18D280D219D212964D
:10014C006CD23097F1F014D216D28F01309761F047
:10015C000230E0E01E0770F0F80131978F01AA81A0
:10016C00BB811496ED93FC9303D2129607D2319770
:10017C00AC81A083FDD151D2FF2312F0F9D1FED175
:10018C0005C0F6D1EFEFFFEFED93FC935ED2259611
:10019C000895EBD126974ED210E0AC85BD85E0E0FA
:1001AC00F0E0ED93FC93EA89FB893196EA8BFB8BAB
:1001BC003197E4912E2FE03009F4FEC0E12FE030AE
:1001CC0031F4253211F411E001C0DED1F4C0E1307C
:1001DC00A1F4253211F4D8D1EDC012E040E000E0DA
:1001EC002D3211F401E0E7C02B3211F44BE2E3C0E5
:1001FC00203211F440E2DFC002C0E23039F450E0AA
:10020C0013E0203311F40068D6C003C0E33009F0CA
:10021C00D2C0203310F02A3308F007C0AAE05A9F4E
:10022C00502DE22FE0535E0FC6C0E22FE33639F4B7
:10023C00B2D1B4D1B0D1A481AA93B4D1BBC0E337AD
:10024C0031F4B6D1B7D1B9D176D11E2F08C0E03771
:10025C0051F4AED1AFD1B1D179D11E2F086002606B
:10026C000F7730E02EC0E43611F0E93611F404605B
:10027C0002C0E53729F4EAE2F0E0A4D115E00BC0A6
:10028C00E83511F4086003C0E83709F093C0E4E3E3
:10029C00F0E098D114E002FF11C08AD18BD195D136
:1002AC00AB85AA232AF4EA85FB85B3D18ED14DE226
:1002BC00403011F01F5F01C00B7F03C079D17AD1A0
:1002CC0084D100FD10C0151770F407FF08C002FFA1
:1002DC0004C00B7F242F115001C020E301C020E289
:1002EC0053D15150F0CF312F01FF15C0303091F068
:1002FC0003FF05C0EE81FF81259164D105C0AE815D
:10030C00BF812D91AE83BF833FD1503009F0515046
:10031C003150ECCF46C020E3EE81FF8182D1E887DB
:10032C00F987EE81FF8132964DD1E885F985AA8552
:10033C00BB85AE17BF0748F02F5FA885B985EA8546
:10034C00FB85EA1BFB0B41D1F0CF2A3328F003FFCE
:10035C0002C0295F01C0295D04FD19C0213320F4BE
:10036C00A885B985119709F409C0531710F000FF3F
:10037C0001C011C020E207FF0AC020E3006102FFA8
:10038C0006C00B7F4A930ED1503009F05150FCD06F
:10039C00503009F051503150A885B985129708F0AA
:1003AC00BACF00FF07C0503029F05150E0E2EA9379
:1003BC00F9D0F9CF10E0F7CEAC85BD852ED141D167
:1003CC0064960895FF92F82E269736D101D1309776
:1003DC0019F4EFEFFFEF1CC0DE01169616D18D015C
:1003EC00F7D0F0D0E0E0E887E987DE011A960DD16E
:1003FC0014D1B8D01A930A93E2EAF0E0B3D0DE013C
:10040C001A96C7DE9F01AE81BF81E0E0EC93F90143
:10041C001AD12A96FF900895AA93EBB3EF70AE2FE2
:10042C00E881E07FEA2BEBBBD8D0DA9AD6D0DA9809
:10043C00D4D07FC0AA93A881EFDFE881E295E8834E
:10044C00A881EADF83E48A95F1F773C0AA93E88167
:10045C00F0E0E051FF4FE081A981AE0FEBDF598056
:10046C00488022960895A2E0BCD0ACE0E3DFA1E086
:10047C00B8D0E0E04E2E5E2E0895AA93A881AA3043
:10048C0011F0571448F0E0E0EA934394A42DDEDF1A
:10049C00A881AA3009F44DC05394D89AA881CADF18
:1004AC00D89847C062D01A93A981BA81ED91A983DB
:1004BC00BA831E2FE03019F0A12FDFDFF5CF0FC06C
:1004CC0054D01A93E981FA813196E983FA833197F2
:1004DC00E4911E2FE03019F0A12FCFDFF3CF18815C
:1004EC0023960895AA93EAB3E06FEABBD29AD09A06
:1004FC00D19ADA98D898D9987880E881E058E09326
:10050C00F200E881E054E093F300A4E1B0E073D092
:10051C006CD06BD06AD0A0E27FDF85E88A95F1F7CA
:10052C00A8E288DFA4E086DFA5E884DFA6E082DF0E
:10053C009ADF2196089519D0A991B991EE27FF273A
:10054C006D91662311F03196FBCF08950ED0AA273A
:10055C00BB27E991F9910590002011F01196FBCF82
:10056C00FD010895FA93EA930895BA93AA93089516
:10057C00AA81BB810895149650D00895ED91FD91F8
:10058C003196FE93EE9308952A93AD85BE85EF8543
:10059C00F88909950895E889F98908953497E88BC5
:1005AC00F98B0895AD85BE85EF85F8890995089579
:1005BC00F2DFF4CFA889B989DECFEE83FF83AE8159
:1005CC00BF810895EE83FF830895EA87FB87089522
:1005DC00DE011C961AD021D0089587E08A95F1F798
:1005EC00089528DFA3E0B0E006C0A0E315DF85E89E
:1005FC008A95F1F70895109639F088EE93E00197FB
:10060C00F1F7A8951197C9F708950024AF0DB01D07
:10061C000895F195E195F0400895ED91FC911197B5
:10062C0008950590F491E02D08957A936A93FA93C6
:10063C00EA9308955A934A933A932A931A930A93F6
:10064C0008955D814C813B812A811981088108952F
:00000001FF
