:0C00000014C0FECFFDCFFCCFFBCFFACF29
:10000C00F9CFF8CFF7CFF6CFF5CFF4CFF3CFF2CFC0
:10001C00F1CFF0CFEFCFEECFEDCFECCFEBCFF8941D
:10002C00EE27ECBBF1E0FBBFEBBFE5BF8DE0A2E040
:10003C00BB27ED938A95E9F780E092E0A0E6ED937B
:10004C000197E9F7EFE5EDBFE2E0EEBFC0EED0E0DF
:10005C000EC0AA93E881E066E7B98DE08A95F1F7C6
:10006C00369A349BFECF349AE5B121960895E0E0A0
:10007C00EABBEBBBE7BBE8BBEFEFE4BBE0E0E5BB07
:10008C00E1BBE2BBE3BFE2BFECBFEFBDEEBDEDBD3C
:10009C00ECBDE7BDE6BDEBBDEABDE9BDE8BDE2BD2B
:1000AC00E5BDE4BDE3BDE9BFE5BFE4BFEAB9E0E807
:1000BC00E8B9E0E6E7B9E2E8E6B9E0E1E0BFE0E0A4
:1000CC00EDB9E6BFA0E0C5DF5E2E552011F4E0E0EF
:1000DC00E5BBE0E0E51518F4E0E2E51508F402C034
:1000EC00E1E0E5BBE0E2E51518F4E0E4E51508F421
:1000FC0002C0E3E0E5BBE0E4E51518F4E0E6E51545
:10010C0008F402C0E7E0E5BBE0E6E51518F4E0E82A
:10011C00E51508F402C0EFE0E5BBE0E8E51518F4DE
:10012C00E0EAE51508F402C0EFE1E5BBE0EAE5150D
:10013C0018F4E0ECE51508F402C0EFE3E5BBE0ECE5
:10014C00E51518F4E0EEE51508F402C0EFE7E5BBA1
:10015C00E0EEE51518F4EFEFE51508F402C0EFEF4B
:10016C00E5BBA2E3B0E002D0ADCFFFCF109639F0E3
:10017C0088EE93E00197F1F7A8951197C9F70895C8
:00000001FF
