:0C0000002BC0FECFFDCFFCCFFBCFFACF12
:10000C00F9CFF8CFF7CFF6CFF5CFF4CFF3CFF2CFC0
:10001C00F1CFF0CFEFCFEECFEDCFECCFEBCF253351
:10002C002C346620566F6C7400002D4E414E00002F
:10003C0001002D4E414E00494E46000080C001008B
:10004C00F0003C000200F40048000000F894EE2799
:10005C00ECBBF1E0FBBFEBBFE5BF8DE0A2E0BB2743
:10006C00ED938A95E9F780E092E0A0E6ED93019795
:10007C00E9F7EAE4F0E085919591009761F0A5919C
:10008C00B59105901590BF01F00105900D92019767
:10009C00E1F7FB01F0CFEFE5EDBFE2E0EEBFC0EE24
:1000AC00D0E00DC0AA93E881E7B98DE08A95F1F70D
:1000BC00369A349BFECF349AE4B1F5B13EC4E0E0FD
:1000CC00EABBEBBBE7BBE8BBE4BBE5BBE1BBE2BB1C
:1000DC00E3BFE2BFECBFEFBDEEBDEDBDECBDE7BDD8
:1000EC00E6BDEBBDEABDE9BDE8BDE2BDE5BDE4BDE5
:1000FC00E3BDE9BFE5BFE4BFEAB9E0E8E8B9E0E099
:10010C00E7B9E2E8E6B9E0E1E0BFE0E0EDB9E6BF6F
:10011C00A0E1EDD3A0E0C6DF2F0166277727E6D557
:10012C00DF01CB01E0E0F0E060E874E4B7D6A0E0DA
:10013C00B0E080EA90E464D6E093E000F093E10054
:10014C006093E2007093E300E4EEF0E038D4EAE26E
:10015C00F0E035D4E4EEF0E06627772788D784E02A
:10016C0098D22896E0E0EA93A0E082D3A4EEB0E027
:10017C00AED3A2E327D4CECFFFCF26D497D727D4A4
:10018C0012965CD73097F1F022D424D48F0130979B
:10019C0061F00230E0E01E0770F0F80131978F013A
:1001AC00AA81BB811496ED93FC9311D4129615D4AD
:1001BC003197AC81A0830BD441D7FF2312F007D425
:1001CC000CD405C004D4EFEFFFEFED93FC9375D77F
:1001DC002596089508D4E0E8EA83EFE3EB8364D72F
:1001EC00EE85FF85EF3FAFEFFA0739F4E885F98527
:1001FC00E6D3A6E3B0E0FFD27BC0EF3FAFE7FA0750
:10020C0031F4F7D3DCD3A7E3B0E0F5D271C0AB8502
:10021C00A73010F0E6E0EB871B85EED311F0F0D39E
:10022C00FCCFFCD33BD719F430E0EAD31BC03B85A1
:10023C00FAD309F008F407C0E3D3F5D318F0FDD3D3
:10024C0001D4FBCF08C0EFD328F4F7D306D40BD4DA
:10025C003150F9CFD5D3E2D30BD405D4E4D310F07D
:10026C00ECD3F0D310E0EB85E11710F107D40BD4ED
:10027C00FFD3DF01CB0193D3EC83FD836E837F83AC
:10028C00DCD30CD6FAD40E2F04D40AD4FF2766275D
:10029C0077272CD5F3D3B4D5D0D3F3D65AD5E3D313
:1002AC00E12F1F5FE030F9F6F4D3EEE2EC93DBCFF5
:1002BC00FCD33197AA85A08330302CF43195A885D6
:1002CC00B985EDE203C0A885B985EBE2EC93EDD3DB
:1002DC00ECD3F0D36DD6E05DDB01EC93E6D3EAD33F
:1002EC0091D6E05DDB01EC93A885B985E0E0EC9359
:1002FC00E2D66096089568D3EF976197D3D610E055
:10030C00FE01E85AFF4F0190F081E02DE887F98754
:10031C00FE01EA5AFF4F0190F081E02DEE83FF833E
:10032C00CED3E0E0F0E0ED93FC93DE01A45ABF4F96
:10033C0054D33197E4912E2FE03009F4A4C1E12F6E
:10034C00E03031F4253211F411E001C0BBD39AC175
:10035C00E130B9F4253211F4B5D393C112E0E0E0E9
:10036C00ED8B00E02D3211F401E08CC12B3219F42D
:10037C00EBE2ED8B87C1203219F4E0E2ED8B82C108
:10038C0002C0E23039F450E013E0203311F400687D
:10039C0079C102C0E33091F4203310F02A3308F015
:1003AC0007C0AAE05A9F502DE22FE0535E0F6AC19E
:1003BC0040E02E3211F414E065C10FC0E43099F422
:1003CC00203310F02A3308F008C00062AAE04A9FDC
:1003DC00402DE22FE0534E0F55C12C3619F402601C
:1003EC0015E050C103C0E53009F04CC1E22FE336F3
:1003FC0039F46FD375D36DD3A481AA9378D341C14B
:10040C00E53411F0E53609F402C0E636A9F575D3EA
:10041C0079D318D67ED382D3AD85AA2332F0AD8999
:10042C00AB3241F0A03261F012C07AD3F3D371D366
:10043C00EDE2ED8B07FF04C0ED89EA9358D307C0BA
:10044C00EE85FF85319671D33197AD89A08305FF79
:10045C0046E0263639F464D30AD64A93AB89BC8974
:10046C0042D107C05DD303D64A932A93AC89BD8988
:10047C00B1DE43D35DD318C0E33729F44FD35DD33A
:10048C0054D356D30AC0E037A1F448D356D34DD336
:10049C00AE85BF85C7D11E2F08600F77403011F095
:1004AC00411708F001C0142F40E0E0E0EC8B30E085
:1004BC005EC0E43611F0E93611F4046002C0E53791
:1004CC0091F4EAE0EC8B01FF07C0E0E0FAEC6AE99A
:1004DC007BE335D31AE01FC0E0E1F7E260E070E0A7
:1004EC002ED315E018C0E83511F4086003C0E837C6
:1004FC0009F0C7C0E0E1EC8B01FF07C0E0E0F0E0E1
:10050C0060E070E11CD318E006C0E0E0F0E160E0D0
:10051C0070E015D314E0403011F00F7701C041E0CA
:10052C0001FF05C0FBD2EED214968CD50AC002FF97
:10053C0004C0F4D202D329D504C0F0D2FED266276F
:10054C007727EA87FB876C877D8702FF0FC0AD8515
:10055C00AA232AF4E5D20BD5DCD2EDE2ED8BED89A2
:10056C00E03019F01F5F4F5F01C00B7F342F00FD8F
:10057C0013C0151710F4351708F00EC007FF08C08C
:10058C0002FF04C00B7F2D89115001C020E301C074
:10059C0020E298D25150EDCF141780F4006102FF85
:1005AC0005C0D2D209F0515011504150E0E3EA930A
:1005BC009ED2503009F051504150EECF312FEC8982
:1005CC00E030A9F4303091F003FF05C0EE85FF85D3
:1005DC002591ABD205C0AE85BF852D91AE87BF8767
:1005EC0071D2503009F051503150ECCF41C0BED2D5
:1005FC00E4D42E2F2A3030F003FF02C0295C01C056
:10060C00295A01C0205D04FD1DC0213348F4B7D226
:10061C00A130E0E0BE07E0E08E07E0E09E0709F4C1
:10062C000BC0431740F4531710F000FF01C00EC06D
:10063C0020E207FF07C020E3006102FF03C084D261
:10064C0009F051503FD2503009F0515031508ED2F8
:10065C00E5D45FD2EC8993D2FF2766277727ADD4F8
:10066C006ED2E889F9896A897B8918D509F0BFCFE0
:10067C0000FF07C0503029F05150E0E2EA9337D226
:10068C00F9CF10E052CE1BD2D9D413D5EF966F967A
:10069C000895FF92F82E269707D576D2309719F445
:1006AC00EFEFFFEF1CC0DE0116965DD48D016CD20E
:1006BC00EE83FF83E0E0E887E987DE011A9653D4E6
:1006CC00BDD47DD11A930A93E3ECF0E078D1DE012E
:1006DC001A9611DE9F01F3D1E0E0EC93F901EBD413
:1006EC002A96FF9008957FD1E0E0EA83EFE3EB8355
:1006FC00DDD4EB85FC85EF3FAFEFFA0729F449D247
:10070C00AEE3B0E078D074C0EF3FAFE7FA0729F45E
:10071C0040D2AFE3B0E06FD06BC0AC85AA2332F40B
:10072C003BD278D23ED242D2EDE2EC93A885A730F0
:10073C0010F0E6E0E88718855FD121F03DD2A3D117
:10074C0040D2FACF43D20CD32CD210E0E0E0F0E050
:10075C0060E87FE336D23AD2E6D360F02DD27DD179
:10076C0030D21F5F173228F014D2A3E4B0E043D08C
:10077C003FC0F1CF103021F419D2E0E3EC9319C053
:10078C003BD1B9F019D27FD173D1DF01CB0107D1A5
:10079C0018D21CD283D371D20E2F08D281D1F0E0A3
:1007AC000BD2F3D3A3D22CD31AD26BD4D2D2F9D18D
:1007BC00E7CFE885E030C1F0F9D1EEE2EC93E885C3
:1007CC00E150E887EF5F81F00AD247D1EAD1E4D15A
:1007DC0054D20E2FEBD164D1F0E001D2D6D386D215
:1007EC0050D4B7D2DED1EBCFAE81BF81E0E0EC9339
:1007FC0064D42D960895E8D0E991F991A991B99115
:10080C00CD0105900D920020E1F7FC010895DCD09C
:10081C00A991B991EE27FF276D91662311F03196BE
:10082C00FBCF0895D1D0AA27BB27E991F991059068
:10083C00002011F01196FBCFFD010895AA93E8B3A7
:10084C00EF70AE2FE881E07FEA2BE8BBCDD1C29AE6
:10085C00CBD1C298C9D171C0AA93A881EFDFE8812E
:10086C00E295E883A881EADF83E48A95F1F765C015
:10087C00AA93E881F0E0EC50FF4FE081A981AE0F24
:10088C00EBDF7980688022960895A2E0E5DFA3E093
:10089C0099D0ACE0E1DFA1E0DFDFA3E093D0E0E0B2
:1008AC006E2E7E2E0895AA93A881AA3011F0791489
:1008BC0040F0E0E0EA936394A62DDADFA881AA3039
:1008CC00E1F17394C09AA881C7DFC09836C07CD080
:1008DC001A93A981BA81ED91A983BA831E2FE030B6
:1008EC0019F0A12FE0DFF5CF188123960895AA9374
:1008FC00E7B3E06FE7BBBA9AB89AB99AC298C098B6
:10090C00C1989880E881E058E093F600E881E054C3
:10091C00E093F700A4E156D06BD16AD169D1A0E283
:10092C008DDF85E88A95F1F7A8E296DFA4E094DFE5
:10093C00A5E892DFA6E090DFA8DF219608959CD36E
:10094C007B816A81F981E88177FB770F67FD7160A4
:10095C00972F9E5781F078F0983190F4AA27BB27F7
:10096C00882708948795B795A7959A95D1F7EA2388
:10097C00FB23682305C0E8947727EE27FF2766271B
:10098C006F77769508F4606877F9A991B991899198
:10099C009991EA17FB076807790797FB08956CD3C1
:1009AC005CD3CDDF5FD311F429D107C0EEF726D18C
:1009BC00A0E0B0E080E89FE3CCD124960895FA93B0
:1009CC00EA930895B0E01CC1BA93AA930895AA8142
:1009DC00BB810895149632D30895ED91FD91319613
:1009EC00FE93EE930895F0DF2497E0E0E883E9832B
:1009FC000895E885F9850895E12F1150E0300895A8
:100A0C00AC81BD818E819F81E0E0F0E060E271E419
:100A1C00F7D1EC83FD836E837F830895EC85FD8590
:100A2C006E857F850895EC81FD816E817F81AC851B
:100A3C00BD858E859F8577D20895AC85BD858E85C5
:100A4C009F850895EDECFCEC6CEC7DE3D9D1EC8743
:100A5C00FD876E877F873F5F0895E0E0F0E060E2FE
:100A6C0071E4CED10895EC87FD876E877F8708955A
:100A7C00A0E0B0E080E09FE373D10895AC81BD812C
:100A8C008E819F810895EDECFCEC6CEC7DE3B8D18C
:100A9C000895A885B9851196A887B98711970895E7
:100AAC00E02FE05DEC93E02F0895A3DF3196E8870B
:100ABC00F98708953197BF01A32FEAE00895AE811D
:100ACC00BF8108952A93AF81B885E985FA85099588
:100ADC000895FE01E65AFF4F0190F081E02D089534
:100AEC003497DE01A65ABF4FED93FC930895AF8166
:100AFC00B885E985FA8509950895FE017696EE8705
:100B0C00FF870895DE01A65ABF4F0D90BC91A02D12
:100B1C000895EA87FB876C877D870895DADFE0CF3D
:100B2C00EA85FB856C857D850895EE87FF870895A2
:100B3C00AE85BF856CDE1E2F0895E4DF4BCFE88BAE
:100B4C00F98B6A8B7B8B08950B7FED89EA93DE0121
:100B5C00A95ABF4F0D90BC91A02DFE01E75AFF4F33
:100B6C000190F081E02D099550300895E889F989BC
:100B7C006A897B89AA85BB858C859D850895A88902
:100B8C00B9898A899B890895DE011C96ECD156D2CD
:100B9C000895EE81FF8113CFE985FA856B857C85FD
:100BAC000895E987FA876B877C87089588DF11960B
:100BBC00AE83BF8311970895AA81BB818C819D81DF
:100BCC000895EA83FB836C837D830895EA81FB811E
:100BDC006C817D81A985BA858B859C850895A985B5
:100BEC00BA858B859C85089587E08A95F1F70895E1
:100BFC00A0E324DE85E88A95F1F7089529D20895BB
:100C0C00109639F088EE93E00197F1F7A8951197BB
:100C1C00C9F7089530976040704009F070580895F6
:100C2C00552342F4503811F4E0FF04C03196691F8B
:100C3C00791F6BF050E8572711F45F93CFC05F3FDB
:100C4C0031F0660F000C57956795752F08955F93DB
:100C5C0000200AF0CFC0C8C050E8192E1522880F0A
:100C6C00991F9527550F879550E8072E0522660F7B
:100C7C00771F7527550F67950895689401C0E89400
:100C8C005F93F2DF703818F07F3F08F4A7C056E18D
:100C9C00571BAAF4519558300EF4593030F0EFEF41
:100CAC00FFEF6FEF7FE777F91AC077275523B9F07D
:100CBC00EE0FFF1F661F771F5A95D1F710C07727CD
:100CCC00583028F0EF2FF62F672F5850F9CF5523B7
:100CDC0031F076956795F795E7955A95D1F7002001
:100CEC000AF445D15F910895689401C0E894309757
:100CFC0060407040B1F0002426F0772312F4009489
:100D0C0036D1172E7EE1112032F07A95EE0FFF1FAF
:100D1C00661F111CF9CFEF2FF62F612D5F938ADF21
:100D2C005F9108954F93AF01FD01DA01AB01BC0156
:100D3C00CA01402D012C142E4F910895EA0FFB1F70
:100D4C00681F0895E095F0956095EF5FFF4F6F4F2A
:100D5C0008955F9381DF903871F150E8152604C037
:100D6C005F937ADF903839F1703821F1572F591B86
:100D7C002BF112F4D7DFFACF583118F0AA27BB2782
:100D8C008827583028F0AB2FB82F88275850F9CF28
:100D9C00552329F08695B795A7955A95D9F7502DD7
:100DAC00512572F0CBDF38F46795F795E79573957D
:100DBC0013F420C0B7DF3EDF5F910895D8F7FBCF67
:100DCC00EA1BFB0B680B51F010F40094BBDF66239D
:100DDC0092F3EE0FFF1F661F7A95CBF7EE27FF27D6
:100DEC00662777275F910895EFEFFFEF6FE77FEFAF
:100DFC005F910895EFEFFFEF6FE77FE75F91089545
:100E0C005F932ADF703851F3903841F30124089432
:100E1C00791F23F41CF300203AF3ECCF0F921F93AD
:100E2C002F933F934F93112722279927689FA00157
:100E3C008F9F302D410D591F6B9F300D411D591F38
:100E4C008E9F27D0BF9F25D06A9F23D0BE9F1DD0D9
:100E5C00AF9F1BD0AE9F110D291F391F491F591F62
:100E6C00E32FF42F652F522F4F913F912F911F910C
:100E7C000F9066232AF0550FEE1FFF1F661F02C04E
:100E8C0073954BF2CDDE5F910895100D211D391F26
:100E9C0002C0200D311D491F591F08955F93DCDEE0
:100EAC00703821F411200AF49FCFA4CF903809F4A4
:100EBC0095CF01240894970B1BF4D4F30020F3CFA7
:100ECC00792F1F932F933F934F9311241127222790
:100EDC0033274427552790E2AE17BF0786074107F3
:100EEC0030F0AE1BBF0B860B410B089401C08894ED
:100EFC00551F221F331F111CAA1FBB1F881F441F05
:100F0C009A9551F7F901612D4F913F912F911F91B6
:100F1C00662332F0550FEE1FFF1F661F7A9543F2C2
:100F2C007FDE5F91089599239AF0772342F097170B
:100F3C0048F029F4AE17BF07860720F031F09894DB
:100F4C008894089598940894089518948894089512
:100F5C007723C2F7971798F3A9F7EA17FB076807E7
:100F6C0088F399F3ECCF0024AF0DB01D0895F095E4
:100F7C0060957095E195FF4F6F4F7F4F0895FE2F51
:100F8C00FF0FFF0B6F2F7F2F08956F2F660F660BD0
:100F9C00762F0895002498E0AA0F001C0E1A10F466
:100FAC000E0E01C0A1609A95B9F7EA2FA02D0895F5
:100FBC0039D0F0DF0EF4E19508953F934F935F9392
:100FCC00002411244427552730E2AA0FBB1F881F89
:100FDC00991F001C111C441F551F0E1A1F0A460B8B
:100FEC00570B28F40E0E1F1E461F571F01C0A16081
:100FFC003A9559F7FD01BC01D001CA015F914F919F
:10100C003F910895E894A7FF02C0A1956894E7FD6D
:10101C00E195C0DFEA2F0EF4E1950895CEDFFD01D6
:10102C00BC010895E894E7FF02C0E1956894A7FF1E
:10103C0004C0A19500F8039400FA0895ED91FC9179
:10104C0011970895ED91FD916D917C9113970895F1
:10105C00E881F9816A817B810895A881B9818A81AF
:10106C009B810895E883F9836A837B8308957A933F
:10107C006A93FA93EA9308959A938A93BA93AA93EC
:10108C000895182E862F612D192E972F712D1B2E3A
:10109C00BF2FF12D1A2EAE2FE12D08953097604001
:1010AC00704008955A934A933A932A931A930A9349
:1010BC0008955D814C813B812A81198108810895B5
:00000001FF
