:0400000056C0FECF19
:10000400FDCFFCCFFBCFFACFF9CFF8CFF7CFF6CFA8
:10001400F5CFF4CFF3CFF2CFF1CFF0CFEFCFEECFD8
:10002400EDCFECCFEBCF1027E80364000A0001000A
:1000340000100001100001006400C80090012003BA
:10004400F8FFFCFFFEFFFFFF61646120252D752092
:10005400445331384232300A0D00746964616B20B4
:1000640061646120445331384232300073756875DD
:1000740020746572756B7572006572726F720074AC
:10008400252D753D252D692E252D750A0D000100A0
:100094002D4E414E00494E46000080C001004101F2
:1000A4009200020045019E000000F894EE27ECBB8C
:1000B400F1E0FBBFEBBFE5BF8DE0A2E0BB27ED9312
:1000C4008A95E9F780E092E0A0E6ED930197E9F7DD
:1000D400E0EAF0E085919591009761F0A591B591E2
:1000E40005901590BF01F00105900D920197E1F77D
:1000F400FB01F0CFEFE5EDBFE2E0EEBFC0EED0E0F4
:1001040000C0E0E0EABBEBBBE7BBE8BBE4BBE5BB9C
:10011400E1BBE2BBE3BFE2BFECBFEFBDEEBDEDBDB3
:10012400ECBDE7BDE6BDEBBDEABDE9BDE8BDE2BDA2
:10013400E5BDE4BDE3BDE9BFE5BFE4BFEAB9E0E87E
:10014400E8B9E0E0E0BFE6B9EDB9E6BFA1D3A0E1CC
:10015400E0D2E0EFEA93A9EEB0E0EAD35E2E18D342
:10016400ECE4F0E01AD3E52D1BD384E08DD128967E
:100174001CD31FD3552039F418D3AEE5B0E0B8D260
:10018400A8EC1DD3F9CF4424451498F482D219D392
:1001940004D3E9E1EA93E3E2EA93A3E019D2E0307D
:1001A40019F0A0E7B0E002C0ADE7B0E0A1D24394FB
:1001B400EBCF4424451408F504D3DF01D4D16CD427
:1001C4003F01E6D2E3E8F0E0E8D24394E42DE8D23C
:1001D400F30125D55AD5D301EAE0F0E03DD5DF019E
:1001E4007DD16627772751D58CE04ED16096E0E02B
:1001F400EA93A1E041D2DDD2DDCFDBCFFFCFE8D25D
:100204004DD5E9D2129636D53097F1F0E4D2E6D244
:100214008F01309761F00230E0E01E0770F0F801C2
:1002240031978F01AA81BB811496ED93FC93D3D2AD
:100234001296D7D23197AC81A083CDD21BD5FF23A0
:1002440012F0C9D2CED205C0C6D2EFEFFFEFED93C4
:10025400FC932BD5F5C1BCD226971CD510E0AC85F8
:10026400BD85E0E0F0E0ED93FC93EA89FB893196EB
:10027400EA8BFB8B3197E4912E2FE03009F4FEC01A
:10028400E12FE03031F4253211F411E001C0AFD296
:10029400F4C0E130A1F4253211F4A9D2EDC012E08A
:1002A40040E000E02D3211F401E0E7C02B3211F4FC
:1002B4004BE2E3C0203211F440E2DFC002C0E2307E
:1002C40039F450E013E0203311F40068D6C003C0C1
:1002D400E33009F0D2C0203310F02A3308F007C00D
:1002E400AAE05A9F502DE22FE0535E0FC6C0E22FC2
:1002F400E33639F483D285D281D2A481AA9385D2FC
:10030400BBC0E33731F487D288D28AD22AD21E2FD7
:1003140008C0E03751F47FD280D282D22DD21E2F72
:10032400086002600F7730E02EC0E43611F0E93641
:1003340011F4046002C0E53729F4EAE2F0E075D272
:1003440015E00BC0E83511F4086003C0E83709F084
:1003540093C0E4E3F0E069D214E002FF11C05BD281
:100364005CD266D2AB85AA232AF4EA85FB854BD4FA
:100374005FD24DE2403011F01F5F01C00B7F03C01C
:100384004AD24BD255D200FD10C0151770F407FFA6
:1003940008C002FF04C00B7F242F115001C020E3CA
:1003A40001C020E224D25150F0CF312F01FF15C0FB
:1003B400303091F003FF05C0EE81FF81259135D2E5
:1003C40005C0AE81BF812D91AE83BF8310D2503062
:1003D40009F051503150ECCF46C020E3EE81FF814B
:1003E4004DD4E887F987EE81FF8132961ED2E885E5
:1003F400F985AA85BB85AE17BF0748F02F5FA8858E
:10040400B985EA85FB85EA1BFB0B12D2F0CF2A33B0
:1004140028F003FF02C0295F01C0295D04FD19C053
:10042400213320F4A885B985119709F409C053171D
:1004340010F000FF01C011C020E207FF0AC020E352
:10044400006102FF06C00B7F4A93DFD1503009F0F0
:100454005150CDD1503009F051503150A885B98553
:10046400129708F0BACF00FF07C0503029F051505E
:10047400E0E2EA93CAD1F9CF10E0F7CEAC85BD85AE
:10048400F9D30FD464960895FF92F82E269704D4D6
:10049400D2D1309719F4EFEFFFEF1CC0DE011696AE
:1004A400AED38D01C8D1C1D1E0E0E887E987DE0190
:1004B4001A96A5D3DFD371D11A930A93E1E0F1E040
:1004C4006CD1DE011A96C7DE9F01AE81BF81E0E0E8
:1004D400EC93F901E8D32A96FF90089579D1E99134
:1004E400F99130971AF4E095F09531960895A8D1D2
:1004F400CFD1E03011F4E0E009C1E981FA8130970D
:1005040069F0A5E50BD210E09ED1ED91A983BA83E1
:10051400AE2F04D21F5F1830B8F302C0ACECFED18A
:10052400E1E0F4C055D1B8D3AC81BD818FD111F4D1
:10053400E0E016C0AEEBF2D110E020EE30E03F93E5
:100544002F932F5F3F4FE5D1AF91BF91EC931F5F86
:100554001930A8F3E0EEF0E020D1A9E058D264D33A
:10056400A2D3269608956CD16ED1DCDFE03011F46D
:1005740070D1CCC0E091E400E295EF70E695E370B1
:100584001E2F61D163D111F464D1C0C0A4E4C6D1DB
:10059400E12FACE3B0E062D175D370D154D1C2DFA6
:1005A400E03011F456D1B2C073D1E12FA4E4B0E02D
:1005B40055D164D3A091E000B091E100EA23FB237C
:1005C4002ED3A1D2A0E0B0E080E89DE3CAD29EC0C1
:1005D400AA93AB81BC813AD111F4E0E031C0E88147
:1005E400E295E07FEE0FEF61E883AEE497D1A98155
:1005F40095D1AA8193D1A88191D1AB81BC8192DF9D
:10060400E03011F4E0E01CC0A091E300EA81EA17B5
:1006140051F4A091E200E981EA1729F4A091E400E1
:10062400E881EA1711F0E0E00BC0AB81BC810ED188
:1006340011F4E0E005C0A8E471D1AFE0C0D028D146
:1006440025960895AA93E8B3EF70AE2FE881E07F72
:10065400EA2BE8BB09D1C29A07D1C29805D17FC061
:10066400AA93A881EFDFE881E295E883A881EADF15
:1006740083E48A95F1F773C0AA93E881F0E0EB5B19
:10068400FE4FE081A981AE0FEBDF9980888022962E
:100694000895A2E0E5DFA3E092D0ACE0E1DFA1E0C1
:1006A400DFDFA3E08CD0E0E08E2E9E2E0895AA9387
:1006B400A881AA3011F09B1448F0E0E0EA938394F7
:1006C400A82DDADFA881AA3009F449C09394C09A0E
:1006D400A881C6DFC09843C0B3D0B5D0ED91A9833B
:1006E400BA831E2FE03019F0A12FE1DFF6CF0EC040
:1006F400A7D0E981FA813196E983FA833197E491AD
:100704001E2FE03019F0A12FD2DFF3CF18812396EA
:100714000895AA93E7B3E06FE7BBBA9AB89AB99A77
:10072400C298C098C198B880E881E058E093470126
:10073400E881E054E0934801A4E141D099D098D0F5
:1007440097D0A0E27FDF85E88A95F1F7A8E288DFF9
:10075400A4E086DFA5E884DFA6E082DF9ADF2196A5
:10076400089536D0A991B991EE27FF276D9166239C
:1007740011F03196FBCF08952BD0AA27BB27E9911E
:10078400F9910590002011F01196FBCFFD01089519
:10079400E1E3F1E0FA93EA930895FA93EA93089572
:1007A400FF276627772771D20895E0E0EA93A0E057
:1007B40063CFA1E3B1E090DFA8ECB0E05FC0B0E0AC
:1007C4005DC0E42DA9E0EA9FF001E751FF4F0895D1
:1007D400BA93AA930895AA81BB81089514964AD224
:1007E4000895ED91FD913196FE93EE9308952A9329
:1007F400AD85BE85EF85F88909950895E889F9895D
:1008040008953497E88BF98B0895AD85BE85EF85FF
:10081400F88909950895F2DFF4CFA889B989DECF64
:10082400EE83FF83AE81BF810895EE83FF83089535
:10083400EA87FB870895DE011C96E1D11BD2089557
:10084400C7DF1A930895A981BA81089550DEE03074
:100854000895E0E0FCE36CE176EC0895F0E0EE0F3F
:10086400FF1FEA0FFB1F089587E08A95F1F70895AB
:10087400A0E3E8DE85E88A95F1F70895109639F04B
:1008840088EE93E00197F1F7A8951197C9F70895B9
:10089400EE27A898A09A80EE91E00197F1F7A0982E
:1008A40083E18A95F1F7989B089585E68A95F1F797
:1008B400989BE1E086E891E00197F1F70895A09A0A
:1008C40083E08A95F1F7A0988FE08A95F1F78894F0
:1008D40098990894E7958BE68A95F1F70895E8943A
:1008E400A09A83E08A95F1F770FDA09881E18A953A
:1008F400F1F7989903C070FF03C0089570FF08953D
:1009040084E68A95F1F7A09887E08A95F1F76894D0
:10091400089568E0D4DF6A95E9F708957A2F68E0CE
:10092400EE27DDDF26F477956A95D9F7E3950895E8
:100934004F935F9311244427012C1124A9DFEE2344
:1009440001F1AF93A881EADFAF9151E0501598F41B
:10095400B6DFE7FD08C0B3DFE7FD06C03FD089235B
:1009640019F4152E01C0ABDF39D0892370E009F0EA
:1009740071E0B5DF1EC0A3DFE7FF0BC0A0DFE7FF18
:1009840005C0E42F5F914F9121960895689437D064
:10099400EFCF95DFE7FF01C003C0501531F0152EEE
:1009A400E8942DD077279BDF04C0689428D071E0A9
:1009B40096DF5395513454F282DFEE1FEE1FE1703F
:1009C4001896EC93189743951120D9F259E0EC91BD
:1009D4001996EC9318975A95D1F7AECFE52FEA956F
:1009E4006E2FE695E695E695FF27EA0FFB1F8081BB
:1009F40091E0677019F0990F6A95FCCF0895EEDFC6
:100A04001EF09095892301C0892B80830895EE27D9
:100A1400AA2389F08A2F68E1A881B98198E0FD9121
:100A24007F2F7E27779508F4E627E795F6959A9524
:100A3400B9F78A9599F722960895552342F45038C8
:100A440011F4E0FF04C03196691F791F6BF050E880
:100A5400572711F45F9373C05F3F31F0660F000CAA
:100A640057956795752F08955F9300200AF073C01A
:100A74006CC050E8192E1522880F991F9527550F21
:100A8400879550E8072E0522660F771F7527550FA7
:100A940067950895689401C0E8945F93F2DF703815
:100AA40018F07F3F08F44BC056E1571BAAF4519548
:100AB40058300EF4593030F0EFEFFFEF6FEF7FE76F
:100AC40077F91AC077275523B9F0EE0FFF1F661F79
:100AD400771F5A95D1F710C07727583028F0EF2F99
:100AE400F62F672F5850F9CF552331F07695679537
:100AF400F795E7955A95D1F700200AF488D05F91CD
:100B04000895689401C0E894309760407040B1F053
:100B1400002426F0772312F4009479D0172E7EE176
:100B2400112032F07A95EE0FFF1F661F111CF9CFCA
:100B3400EF2FF62F612D5F938ADF5F910895EE27E3
:100B4400FF27662777275F910895EFEFFFEF6FE7A1
:100B54007FEF5F910895EFEFFFEF6FE77FE75F911E
:100B640008955F9386DF703851F3903841F3012480
:100B74000894791F23F41CF300203AF3ECCF0F926E
:100B84001F932F933F934F93112722279927689FF1
:100B9400A0018F9F302D410D591F6B9F300D411DBA
:100BA400591F8E9F27D0BF9F25D06A9F23D0BE9FF9
:100BB4001DD0AF9F1BD0AE9F110D291F391F491F98
:100BC400591FE32FF42F652F522F4F913F912F91EF
:100BD4001F910F9066232AF0550FEE1FFF1F661F0B
:100BE40002C073954BF229DF5F910895100D211D0A
:100BF400391F02C0200D311D491F591F08950024BB
:100C0400AF0DB01D0895F195E195F0400895F0956C
:100C140060957095E195FF4F6F4F7F4F08956F2F4B
:100C2400660F660B762F0895EE23E1E009F0EE27B8
:100C340008950024112490E1AA0FBB1F001C111C6D
:100C44000E1A1F0A18F40E0E1F1E01C0A1609A95F9
:100C540099F7FD01D0010895E894B7FF04C0A09569
:100C6400B09511966894F7FDCEDFE3DFFD010EF435
:100C7400CADF0895ED91FC91119708950590F491C0
:100C8400E02D0895A591B49108957A936A93FA9307
:100C9400EA9308955A934A933A932A931A930A9398
:100CA40008955D814C813B812A81198108810895D1
:00000001FF
