:0A00000029C0FECFFDCFFCCFFBCFDF
:10000A00FACFF9CFF8CFF7CFF6CFF5CFF4CFF3CFBA
:10001A00F2CFF1CFF0CFEFCFEECFEDCFECCFEBCFEA
:10002A007072616B2E206D6963726F2055414400B6
:10003A0041544D454C204156522038353335000045
:10004A0080C00200E0004A000000F894EE27ECBBF2
:10005A00F1E0FBBFEBBFE5BF8DE0A2E0BB27ED936C
:10006A008A95E9F780E092E0A0E6ED930197E9F737
:10007A00ECE4F0E085919591009761F0A591B59136
:10008A0005901590BF01F00105900D920197E1F7D7
:10009A00FB01F0CFEFE5EDBFE2E0EEBFC0EED0E04E
:1000AA0000C0E0E0EABBEBBBE7BBE8BBE4BBE5BBF7
:1000BA00E1BBE2BBE3BFE2BFECBFEFBDEEBDEDBD0E
:1000CA00ECBDE7BDE6BDEBBDEABDE9BDE8BDE2BDFD
:1000DA00E5BDE4BDE3BDE9BFE5BFE4BFEAB9E0E8D9
:1000EA00E8B9E0E0E0BFE6B9EDB9E6BFA0E163D068
:1000FA008BD0AAE2B0E04CD087D0AAE3B0E048D0D7
:10010A00F7CFFFCFAA93E8B3EF70AE2FE881E07F75
:10011A00EA2BE8BB7DD0C29A7BD0C29879D072C054
:10012A00AA93A881EFDFE881E295E883A881EADF54
:10013A0083E48A95F1F766C0AA93E881F0E0E05279
:10014A00FF4FE081A981AE0FEBDF598048802296EC
:10015A000895A2E061D0ACE0E3DFA1E05DD0E0E089
:10016A004E2E5E2E0895AA93A881AA3011F0571434
:10017A0048F0E0E0EA934394A42DDEDFA881AA3098
:10018A0009F440C05394C09AA881CADFC0983AC003
:10019A00BA93AA931A93E981FA813196E983FA8389
:1001AA003197E4911E2FE03019F0A12FDCDFF3CF55
:1001BA00188123960895AA93E7B3E06FE7BBBA9A2A
:1001CA00B89AB99AC298C098C1987880E881E058DC
:1001DA00E093E200E881E054E093E300A4E1B0E0B8
:1001EA0025D01ED01DD01CD0A0E28CDF85E88A95D0
:1001FA00F1F7A8E295DFA4E093DFA5E891DFA6E096
:10020A008FDFA7DF21960895E0E0EA93A0E094CF7C
:10021A0087E08A95F1F7089583DFA3E0B0E006C08E
:10022A00A0E370DF85E88A95F1F70895109639F012
:10023A0088EE93E00197F1F7A8951197C9F7089509
:00000001FF
