:0600000030C0FECFFDCF71
:10000600FCCFFBCFFACFF9CFF8CFF7CFF6CFF5CFAE
:10001600F4CFF3CFF2CFF1CFF0CFEFCFEECFEDCFDE
:10002600ECCFEBCF1027E80364000A0001000010B4
:100036000001100001002A6B657970616420746FFD
:10004600206C6364006B6579706164203A2000253A
:10005600630080C00200F00058000000F894EE270C
:10006600ECBBF1E0FBBFEBBFE5BF8DE0A2E0BB2739
:10007600ED938A95E9F780E092E0A0E6ED9301978B
:10008600E9F7EAE5F0E085919591009761F0A59191
:10009600B59105901590BF01F00105900D9201975D
:1000A600E1F7FB01F0CFEFE5EDBFE2E0EEBFC0EE1A
:1000B600D0E000C0E0E0EABBEBBBE7BBE8BBE4BBDB
:1000C600E5BBE0EFE1BBEFE0E2BBE0E0E3BFE2BFB0
:1000D600ECBFEFBDEEBDEDBDECBDE7BDE6BDEBBDD6
:1000E600EABDE9BDE8BDE2BDE5BDE4BDE3BDE9BFEE
:1000F600E5BFE4BFEAB9E0E8E8B9E0E0E0BFE6B9A9
:10010600EDB9E6BFA0E1DCD0E0E0EA93A0E087D05D
:10011600ACE3B0E0C3D0E0E0EA93A1E080D0ABE48A
:10012600B0E0BCD019D0EAE0EA93A1E078D0E0EEE6
:10013600F0E075D2E5E5F0E072D2E42DFF27662700
:100146007727E3D284E02AD22896A0EEB0E097D0B3
:10015600A5E068D2D9CFFFCF949866D211F4E1E337
:100166000BC06BD211F4E4E307C06BD211F4E7E3E2
:1001760003C06BD211F4EAE24E2E949A959854D2AB
:1001860011F4E2E30BC059D211F4E5E307C059D2EA
:1001960011F4E8E303C059D211F4E0E34E2E959A28
:1001A600969842D211F4E3E30BC047D211F4E6E38A
:1001B60007C047D211F4E9E303C047D211F4E3E2E2
:1001C6004E2E969A979830D211F4E1E40BC035D2B0
:1001D60011F4E2E407C035D211F4E3E403C035D2EA
:1001E60011F4E4E44E2E979A0895AA93E8B3EF70BB
:1001F600AE2FE881E07FEA2BE8BB2BD2C29A29D248
:10020600C29827D283C0AA93A881EFDFE881E2953E
:10021600E883A881EADF83E48A95F1F777C0AA9399
:10022600E881F0E0E051FF4FE081A981AE0FEBDFFE
:100236007980688022960895A2E0E5DFA3E0F2D1F6
:10024600ACE0E1DFA1E0DFDFA3E0ECD1E0E06E2E81
:100256007E2E0895AA93A881AA3011F0791448F049
:10026600E0E0EA936394A62DDADFA881AA3009F4C8
:100276004DC07394C09AA881C6DFC09847C0BA9390
:10028600AA931A93A981BA81ED91A983BA831E2FE5
:10029600E03019F0A12FDEDFF5CF0FC0DED11A93C3
:1002A600E981FA813196E983FA833197E4911E2F29
:1002B600E03019F0A12FCEDFF3CF188123960895F1
:1002C600AA93E7B3E06FE7BBBA9AB89AB99AC2980D
:1002D600C098C1989880E881E058E093F200E881E0
:1002E600E054E093F300A4E19DD1BAD1B9D1B8D1DD
:1002F600A0E27BDF85E88A95F1F7A8E284DFA4E037
:1003060082DFA5E880DFA6E07EDF96DF21960895EE
:10031600A4D104D2ABD11296F0D13097F1F0A6D188
:10032600A8D18F01309761F00230E0E01E0770F02F
:10033600F80131978F01AA81BB811496ED93FC9346
:1003460095D1129699D13197AC81A0838FD1D5D111
:10035600FF2312F08BD190D105C088D1EFEFFFEFCC
:10036600ED93FC93E2D12596089577D12697D2D1C5
:1003760010E0AC85BD85E0E0F0E0ED93FC93EA8902
:10038600FB893196EA8BFB8B3197E4912E2FE03077
:1003960009F4FEC0E12FE03031F4253211F411E00A
:1003A60001C070D1F4C0E130A1F4253211F46AD154
:1003B600EDC012E040E000E02D3211F401E0E7C0AC
:1003C6002B3211F44BE2E3C0203211F440E2DFC0DD
:1003D60002C0E23039F450E013E0203311F4006833
:1003E600D6C003C0E33009F0D2C0203310F02A3360
:1003F60008F007C0AAE05A9F502DE22FE0535E0F87
:10040600C6C0E22FE33639F444D146D142D1A481A5
:10041600AA9346D1BBC0E33731F448D149D14BD179
:10042600E7D01E2F08C0E03751F440D141D143D167
:10043600EAD01E2F086002600F7730E02EC0E43647
:1004460011F0E93611F4046002C0E53729F4EAE256
:10045600F0E036D115E00BC0E83511F4086003C0B2
:10046600E83709F093C0E4E3F0E02AD114E002FF94
:1004760011C01CD11DD127D1AB85AA232AF4EA8548
:10048600FB8537D120D14DE2403011F01F5F01C00E
:100496000B7F03C00BD10CD116D100FD10C0151770
:1004A60070F407FF08C002FF04C00B7F242F115011
:1004B60001C020E301C020E2E5D05150F0CF312F3A
:1004C60001FF15C0303091F003FF05C0EE81FF81BA
:1004D6002591F6D005C0AE81BF812D91AE83BF8335
:1004E600D1D0503009F051503150ECCF46C020E306
:1004F600EE81FF8106D1E887F987EE81FF8132968A
:10050600DFD0E885F985AA85BB85AE17BF0748F019
:100516002F5FA885B985EA85FB85EA1BFB0BD3D03F
:10052600F0CF2A3328F003FF02C0295F01C0295DFE
:1005360004FD19C0213320F4A885B985119709F463
:1005460009C0531710F000FF01C011C020E207FFD9
:100556000AC020E3006102FF06C00B7F4A93A0D0C9
:10056600503009F051508ED0503009F05150315072
:10057600A885B985129708F0BACF00FF07C050309A
:1005860029F05150E0E2EA938BD0F9CF10E0F7CE94
:10059600AC85BD85B2D0C5D064960895FF92F82E7D
:1005A6002697BAD093D0309719F4EFEFFFEF1CC01F
:1005B600DE0116969AD08D0189D082D0E0E0E887D8
:1005C600E987DE011A9691D098D029D01A930A931A
:1005D600EBE8F1E024D0DE011A96C7DE9F01AE817A
:1005E600BF81E0E0EC93F9019ED02A96FF90089532
:1005F60034D0A991B991EE27FF276D91662311F0AA
:100606003196FBCF089529D0AA27BB27E991F99106
:100616000590002011F01196FBCFFD010895FA9385
:10062600EA930895B0E057C0E0B3E095EF705E2E10
:10063600F0E0E130A0E0FA070895E230A0E0FA0722
:100646000895E430A0E0FA070895E830A0E0FA073C
:10065600089587E08A95F1F70895BA93AA930895C5
:10066600A0E3C3DD85E88A95F1F70895AA81BB81E9
:100676000895149642D00895ED91FD913196FE931A
:10068600EE9308952A93AD85BE85EF85F889099581
:100696000895E889F98908953497E88BF98B0895C8
:1006A600AD85BE85EF85F88909950895F2DFF4CF0B
:1006B600A889B989DECFEE83FF83AE81BF81089515
:1006C600EE83FF830895EA87FB870895DE011C9673
:1006D6000CD013D00895109639F088EE93E0019768
:1006E600F1F7A8951197C9F708950024AF0DB01D2D
:1006F6000895F195E195F0400895ED91FC911197DB
:1007060008950590F491E02D08957A936A93FA93EB
:10071600EA9308955A934A933A932A931A930A931B
:1007260008955D814C813B812A8119810881089554
:00000001FF
