:1000000014C0FECFFDCFFCCFFBCFFACFF9CFF8CF96
:10001000F7CFF6CFF5CFF4CFF3CFF2CFF1CFF0CFCC
:10002000EFCFEECFEDCFECCFEBCFF894EE27ECBBDC
:10003000F1E0FBBFEBBFE5BF8DE0A2E0BB27ED9396
:100040008A95E9F780E092E0A0E6ED930197E9F761
:10005000EFE5EDBFE2E0EEBFC0EED0E000C0E0E0D3
:10006000EABBEBBBE7BBE8BBEFEFE4BBE5BBE0E023
:10007000E1BBE2BBE3BFE2BFECBFEFBDEEBDEDBD58
:10008000ECBDE7BDE6BDEBBDEABDE9BDE8BDE2BD47
:10009000E5BDE4BDE3BDE9BFE5BFE4BFEAB9E0E823
:1000A000E8B9E0E0E0BFE6B9EDB9E6BFFFCFFFCFCA
:00000001FF
