:0A00000014C0FECFFDCFFCCFFBCFF4
:10000A00FACFF9CFF8CFF7CFF6CFF5CFF4CFF3CFBA
:10001A00F2CFF1CFF0CFEFCFEECFEDCFECCFEBCFEA
:10002A00F894EE27ECBBF1E0FBBFEBBFE5BF8DE038
:10003A00A2E0BB27ED938A95E9F780E092E0A0E67B
:10004A00ED930197E9F7EFE5EDBFE2E0EEBFC0EE11
:10005A00D0E000C0E0E0EABBEBBBE7BBE8BBEFEFF8
:10006A00E4BBE0E0E5BBE1BBE2BBE3BFE2BFECBF60
:10007A00EFBDEEBDEDBDECBDE7BDE6BDEBBDEABD36
:10008A00E9BDE8BDE2BDE5BDE4BDE3BDE9BFE5BF4D
:10009A00E4BFEAB9E0E8E8B9E0E0E0BFE6B9EDB903
:1000AA00E6BFE1E05E2EE0E85E1618F411D0550CCA
:1000BA00FACFE0E85E2EE1E0E51540F409D0A52D7F
:1000CA00B0E0E2E0F0E029D05E2EF5CFEACFFFCF34
:1000DA0055BAA2E3B0E000C0109639F088EE93E07A
:1000EA000197F1F7A8951197C9F70895F195E19548
:1000FA00F04008950024112490E1AA0FBB1F001CB0
:10010A00111C0E1A1F0A18F40E0E1F1E01C0A16040
:10011A009A9599F7FD01D001089504D0EBDF0EF40A
:10012A00E5DF0895E894F7FF02C0E0DF6894B7FFBF
:10013A0006C0A095B095119600F8039400FA0895A8
:00000001FF
